{
  "_format": "hh-sol-artifact-1",
  "contractName": "BattlePass",
  "sourceName": "contracts/exv.nft.battlepass.sol",
  "abi": [
    {
      "inputs": [
        {
          "internalType": "string",
          "name": "name_",
          "type": "string"
        },
        {
          "internalType": "string",
          "name": "symbol_",
          "type": "string"
        },
        {
          "internalType": "uint256",
          "name": "maxBatchSize_",
          "type": "uint256"
        },
        {
          "internalType": "uint256",
          "name": "collectionSize_",
          "type": "uint256"
        },
        {
          "internalType": "uint256",
          "name": "amountForSaleAndDev_",
          "type": "uint256"
        },
        {
          "internalType": "uint256",
          "name": "amountForDevs_",
          "type": "uint256"
        }
      ],
      "stateMutability": "nonpayable",
      "type": "constructor"
    },
    {
      "inputs": [],
      "name": "ApprovalCallerNotOwnerNorApproved",
      "type": "error"
    },
    {
      "inputs": [],
      "name": "ApprovalQueryForNonexistentToken",
      "type": "error"
    },
    {
      "inputs": [],
      "name": "ApprovalToCurrentOwner",
      "type": "error"
    },
    {
      "inputs": [],
      "name": "ApproveToCaller",
      "type": "error"
    },
    {
      "inputs": [],
      "name": "BalanceQueryForZeroAddress",
      "type": "error"
    },
    {
      "inputs": [],
      "name": "MintToZeroAddress",
      "type": "error"
    },
    {
      "inputs": [],
      "name": "MintZeroQuantity",
      "type": "error"
    },
    {
      "inputs": [],
      "name": "OwnerQueryForNonexistentToken",
      "type": "error"
    },
    {
      "inputs": [],
      "name": "TransferCallerNotOwnerNorApproved",
      "type": "error"
    },
    {
      "inputs": [],
      "name": "TransferFromIncorrectOwner",
      "type": "error"
    },
    {
      "inputs": [],
      "name": "TransferToNonERC721ReceiverImplementer",
      "type": "error"
    },
    {
      "inputs": [],
      "name": "TransferToZeroAddress",
      "type": "error"
    },
    {
      "inputs": [],
      "name": "URIQueryForNonexistentToken",
      "type": "error"
    },
    {
      "anonymous": false,
      "inputs": [
        {
          "indexed": true,
          "internalType": "address",
          "name": "owner",
          "type": "address"
        },
        {
          "indexed": true,
          "internalType": "address",
          "name": "approved",
          "type": "address"
        },
        {
          "indexed": true,
          "internalType": "uint256",
          "name": "tokenId",
          "type": "uint256"
        }
      ],
      "name": "Approval",
      "type": "event"
    },
    {
      "anonymous": false,
      "inputs": [
        {
          "indexed": true,
          "internalType": "address",
          "name": "owner",
          "type": "address"
        },
        {
          "indexed": true,
          "internalType": "address",
          "name": "operator",
          "type": "address"
        },
        {
          "indexed": false,
          "internalType": "bool",
          "name": "approved",
          "type": "bool"
        }
      ],
      "name": "ApprovalForAll",
      "type": "event"
    },
    {
      "anonymous": false,
      "inputs": [
        {
          "indexed": true,
          "internalType": "address",
          "name": "previousOwner",
          "type": "address"
        },
        {
          "indexed": true,
          "internalType": "address",
          "name": "newOwner",
          "type": "address"
        }
      ],
      "name": "OwnershipTransferred",
      "type": "event"
    },
    {
      "anonymous": false,
      "inputs": [
        {
          "indexed": true,
          "internalType": "address",
          "name": "from",
          "type": "address"
        },
        {
          "indexed": true,
          "internalType": "address",
          "name": "to",
          "type": "address"
        },
        {
          "indexed": true,
          "internalType": "uint256",
          "name": "tokenId",
          "type": "uint256"
        }
      ],
      "name": "Transfer",
      "type": "event"
    },
    {
      "inputs": [],
      "name": "amountForDevs",
      "outputs": [
        {
          "internalType": "uint256",
          "name": "",
          "type": "uint256"
        }
      ],
      "stateMutability": "view",
      "type": "function"
    },
    {
      "inputs": [],
      "name": "amountForSaleAndDev",
      "outputs": [
        {
          "internalType": "uint256",
          "name": "",
          "type": "uint256"
        }
      ],
      "stateMutability": "view",
      "type": "function"
    },
    {
      "inputs": [
        {
          "internalType": "address",
          "name": "to",
          "type": "address"
        },
        {
          "internalType": "uint256",
          "name": "tokenId",
          "type": "uint256"
        }
      ],
      "name": "approve",
      "outputs": [],
      "stateMutability": "nonpayable",
      "type": "function"
    },
    {
      "inputs": [
        {
          "internalType": "address",
          "name": "owner",
          "type": "address"
        }
      ],
      "name": "balanceOf",
      "outputs": [
        {
          "internalType": "uint256",
          "name": "",
          "type": "uint256"
        }
      ],
      "stateMutability": "view",
      "type": "function"
    },
    {
      "inputs": [],
      "name": "config",
      "outputs": [
        {
          "internalType": "uint32",
          "name": "whitelistSaleStartTime",
          "type": "uint32"
        },
        {
          "internalType": "uint64",
          "name": "whitelistPriceWei",
          "type": "uint64"
        },
        {
          "internalType": "uint32",
          "name": "publicSaleStartTime",
          "type": "uint32"
        },
        {
          "internalType": "uint64",
          "name": "publicPriceWei",
          "type": "uint64"
        },
        {
          "internalType": "address",
          "name": "whitelistSigner",
          "type": "address"
        }
      ],
      "stateMutability": "view",
      "type": "function"
    },
    {
      "inputs": [
        {
          "internalType": "uint256",
          "name": "tokenId",
          "type": "uint256"
        }
      ],
      "name": "getApproved",
      "outputs": [
        {
          "internalType": "address",
          "name": "",
          "type": "address"
        }
      ],
      "stateMutability": "view",
      "type": "function"
    },
    {
      "inputs": [
        {
          "internalType": "uint256",
          "name": "tokenId",
          "type": "uint256"
        }
      ],
      "name": "getOwnershipData",
      "outputs": [
        {
          "components": [
            {
              "internalType": "address",
              "name": "addr",
              "type": "address"
            },
            {
              "internalType": "uint64",
              "name": "startTimestamp",
              "type": "uint64"
            },
            {
              "internalType": "bool",
              "name": "burned",
              "type": "bool"
            }
          ],
          "internalType": "struct ERC721A.TokenOwnership",
          "name": "",
          "type": "tuple"
        }
      ],
      "stateMutability": "view",
      "type": "function"
    },
    {
      "inputs": [],
      "name": "getPrice",
      "outputs": [
        {
          "internalType": "uint256",
          "name": "",
          "type": "uint256"
        }
      ],
      "stateMutability": "view",
      "type": "function"
    },
    {
      "inputs": [
        {
          "internalType": "address",
          "name": "owner",
          "type": "address"
        },
        {
          "internalType": "address",
          "name": "operator",
          "type": "address"
        }
      ],
      "name": "isApprovedForAll",
      "outputs": [
        {
          "internalType": "bool",
          "name": "",
          "type": "bool"
        }
      ],
      "stateMutability": "view",
      "type": "function"
    },
    {
      "inputs": [
        {
          "internalType": "uint256",
          "name": "_price",
          "type": "uint256"
        },
        {
          "internalType": "uint256",
          "name": "_startTime",
          "type": "uint256"
        }
      ],
      "name": "isSaleOn",
      "outputs": [
        {
          "internalType": "bool",
          "name": "",
          "type": "bool"
        }
      ],
      "stateMutability": "view",
      "type": "function"
    },
    {
      "inputs": [],
      "name": "maxPerAddressDuringMint",
      "outputs": [
        {
          "internalType": "uint256",
          "name": "",
          "type": "uint256"
        }
      ],
      "stateMutability": "view",
      "type": "function"
    },
    {
      "inputs": [
        {
          "internalType": "uint256",
          "name": "quantity",
          "type": "uint256"
        }
      ],
      "name": "mint",
      "outputs": [],
      "stateMutability": "payable",
      "type": "function"
    },
    {
      "inputs": [],
      "name": "name",
      "outputs": [
        {
          "internalType": "string",
          "name": "",
          "type": "string"
        }
      ],
      "stateMutability": "view",
      "type": "function"
    },
    {
      "inputs": [
        {
          "internalType": "address",
          "name": "owner",
          "type": "address"
        }
      ],
      "name": "numberMinted",
      "outputs": [
        {
          "internalType": "uint256",
          "name": "",
          "type": "uint256"
        }
      ],
      "stateMutability": "view",
      "type": "function"
    },
    {
      "inputs": [],
      "name": "owner",
      "outputs": [
        {
          "internalType": "address",
          "name": "",
          "type": "address"
        }
      ],
      "stateMutability": "view",
      "type": "function"
    },
    {
      "inputs": [
        {
          "internalType": "uint256",
          "name": "tokenId",
          "type": "uint256"
        }
      ],
      "name": "ownerOf",
      "outputs": [
        {
          "internalType": "address",
          "name": "",
          "type": "address"
        }
      ],
      "stateMutability": "view",
      "type": "function"
    },
    {
      "inputs": [],
      "name": "renounceOwnership",
      "outputs": [],
      "stateMutability": "nonpayable",
      "type": "function"
    },
    {
      "inputs": [
        {
          "internalType": "uint256",
          "name": "quantity",
          "type": "uint256"
        }
      ],
      "name": "reserve",
      "outputs": [],
      "stateMutability": "nonpayable",
      "type": "function"
    },
    {
      "inputs": [
        {
          "internalType": "address",
          "name": "from",
          "type": "address"
        },
        {
          "internalType": "address",
          "name": "to",
          "type": "address"
        },
        {
          "internalType": "uint256",
          "name": "tokenId",
          "type": "uint256"
        }
      ],
      "name": "safeTransferFrom",
      "outputs": [],
      "stateMutability": "nonpayable",
      "type": "function"
    },
    {
      "inputs": [
        {
          "internalType": "address",
          "name": "from",
          "type": "address"
        },
        {
          "internalType": "address",
          "name": "to",
          "type": "address"
        },
        {
          "internalType": "uint256",
          "name": "tokenId",
          "type": "uint256"
        },
        {
          "internalType": "bytes",
          "name": "_data",
          "type": "bytes"
        }
      ],
      "name": "safeTransferFrom",
      "outputs": [],
      "stateMutability": "nonpayable",
      "type": "function"
    },
    {
      "inputs": [
        {
          "internalType": "address",
          "name": "operator",
          "type": "address"
        },
        {
          "internalType": "bool",
          "name": "approved",
          "type": "bool"
        }
      ],
      "name": "setApprovalForAll",
      "outputs": [],
      "stateMutability": "nonpayable",
      "type": "function"
    },
    {
      "inputs": [
        {
          "internalType": "string",
          "name": "baseURI",
          "type": "string"
        }
      ],
      "name": "setBaseURI",
      "outputs": [],
      "stateMutability": "nonpayable",
      "type": "function"
    },
    {
      "inputs": [
        {
          "internalType": "uint32",
          "name": "timestamp",
          "type": "uint32"
        },
        {
          "internalType": "uint64",
          "name": "price",
          "type": "uint64"
        }
      ],
      "name": "setPublicSaleConfig",
      "outputs": [],
      "stateMutability": "nonpayable",
      "type": "function"
    },
    {
      "inputs": [
        {
          "internalType": "uint32",
          "name": "timestamp",
          "type": "uint32"
        },
        {
          "internalType": "uint64",
          "name": "price",
          "type": "uint64"
        },
        {
          "internalType": "address",
          "name": "signer",
          "type": "address"
        }
      ],
      "name": "setWhitelistSaleConfig",
      "outputs": [],
      "stateMutability": "nonpayable",
      "type": "function"
    },
    {
      "inputs": [
        {
          "internalType": "bytes4",
          "name": "interfaceId",
          "type": "bytes4"
        }
      ],
      "name": "supportsInterface",
      "outputs": [
        {
          "internalType": "bool",
          "name": "",
          "type": "bool"
        }
      ],
      "stateMutability": "view",
      "type": "function"
    },
    {
      "inputs": [],
      "name": "symbol",
      "outputs": [
        {
          "internalType": "string",
          "name": "",
          "type": "string"
        }
      ],
      "stateMutability": "view",
      "type": "function"
    },
    {
      "inputs": [
        {
          "internalType": "uint256",
          "name": "tokenId",
          "type": "uint256"
        }
      ],
      "name": "tokenURI",
      "outputs": [
        {
          "internalType": "string",
          "name": "",
          "type": "string"
        }
      ],
      "stateMutability": "view",
      "type": "function"
    },
    {
      "inputs": [],
      "name": "totalMinted",
      "outputs": [
        {
          "internalType": "uint256",
          "name": "",
          "type": "uint256"
        }
      ],
      "stateMutability": "view",
      "type": "function"
    },
    {
      "inputs": [],
      "name": "totalSupply",
      "outputs": [
        {
          "internalType": "uint256",
          "name": "",
          "type": "uint256"
        }
      ],
      "stateMutability": "view",
      "type": "function"
    },
    {
      "inputs": [
        {
          "internalType": "address",
          "name": "from",
          "type": "address"
        },
        {
          "internalType": "address",
          "name": "to",
          "type": "address"
        },
        {
          "internalType": "uint256",
          "name": "tokenId",
          "type": "uint256"
        }
      ],
      "name": "transferFrom",
      "outputs": [],
      "stateMutability": "nonpayable",
      "type": "function"
    },
    {
      "inputs": [
        {
          "internalType": "address",
          "name": "newOwner",
          "type": "address"
        }
      ],
      "name": "transferOwnership",
      "outputs": [],
      "stateMutability": "nonpayable",
      "type": "function"
    },
    {
      "inputs": [
        {
          "internalType": "uint256",
          "name": "quantity",
          "type": "uint256"
        },
        {
          "internalType": "uint256",
          "name": "maxPerWhitelistDuringMint",
          "type": "uint256"
        },
        {
          "internalType": "bytes",
          "name": "signature",
          "type": "bytes"
        }
      ],
      "name": "whitelistMint",
      "outputs": [],
      "stateMutability": "payable",
      "type": "function"
    },
    {
      "inputs": [],
      "name": "withdraw",
      "outputs": [],
      "stateMutability": "nonpayable",
      "type": "function"
    }
  ],
  "bytecode": "0x6101206040523480156200001257600080fd5b50604051620032b7380380620032b78339810160408190526200003591620002b8565b85856200004233620000f5565b81516200005790600390602085019062000145565b5080516200006d90600490602084019062000145565b50600060019081556009555050608084905260c082905260a081905261010084905260e083905282821115620000e95760405162461bcd60e51b815260206004820152601d60248201527f6c617267657220636f6c6c656374696f6e2073697a65206e6565646564000000604482015260640160405180910390fd5b50505050505062000383565b600080546001600160a01b038381166001600160a01b0319831681178455604051919092169283917f8be0079c531659141344cd1fd0a4f28419497f9722a3daafe3b4186f6b6457e09190a35050565b828054620001539062000347565b90600052602060002090601f016020900481019282620001775760008555620001c2565b82601f106200019257805160ff1916838001178555620001c2565b82800160010185558215620001c2579182015b82811115620001c2578251825591602001919060010190620001a5565b50620001d0929150620001d4565b5090565b5b80821115620001d05760008155600101620001d5565b634e487b7160e01b600052604160045260246000fd5b600082601f8301126200021357600080fd5b81516001600160401b0380821115620002305762000230620001eb565b604051601f8301601f19908116603f011681019082821181831017156200025b576200025b620001eb565b816040528381526020925086838588010111156200027857600080fd5b600091505b838210156200029c57858201830151818301840152908201906200027d565b83821115620002ae5760008385830101525b9695505050505050565b60008060008060008060c08789031215620002d257600080fd5b86516001600160401b0380821115620002ea57600080fd5b620002f88a838b0162000201565b975060208901519150808211156200030f57600080fd5b506200031e89828a0162000201565b95505060408701519350606087015192506080870151915060a087015190509295509295509295565b600181811c908216806200035c57607f821691505b6020821081036200037d57634e487b7160e01b600052602260045260246000fd5b50919050565b60805160a05160c05160e05161010051612ec5620003f260003960008181610e3101528181610ed00152610f08015260006110a20152600081816105eb015261152b0152600081816106fb0152610d810152600081816104b00152818161112901526115fe0152612ec56000f3fe6080604052600436106101fe5760003560e01c80638bc35c2f1161011d578063b88d4fde116100b0578063e18bb9411161007f578063ec596b7211610064578063ec596b72146106b6578063f2fde38b146106c9578063fbe1aa51146106e957600080fd5b8063e18bb9411461064d578063e985e9c51461066d57600080fd5b8063b88d4fde146105b9578063ba313ca7146105d9578063c87b56dd1461060d578063dc33e6811461062d57600080fd5b806398d5fdca116100ec57806398d5fdca1461055c578063a0712d6814610571578063a22cb46514610584578063a2309ff8146105a457600080fd5b80638bc35c2f1461049e5780638da5cb5b146104d25780639231ab2a146104f057806395d89b411461054757600080fd5b806355f804b31161019557806370a082311161016457806370a08231146103ac578063715018a6146103cc57806379502c55146103e1578063819b25ba1461047e57600080fd5b806355f804b31461032c5780635b33c3501461034c5780636352211e1461036c5780636b12304e1461038c57600080fd5b806318160ddd116101d157806318160ddd146102b457806323b872dd146102d75780633ccfd60b146102f757806342842e0e1461030c57600080fd5b806301ffc9a71461020357806306fdde0314610238578063081812fc1461025a578063095ea7b314610292575b600080fd5b34801561020f57600080fd5b5061022361021e3660046127bb565b61071d565b60405190151581526020015b60405180910390f35b34801561024457600080fd5b5061024d6107ba565b60405161022f9190612830565b34801561026657600080fd5b5061027a610275366004612843565b61084c565b6040516001600160a01b03909116815260200161022f565b34801561029e57600080fd5b506102b26102ad366004612873565b6108a9565b005b3480156102c057600080fd5b50600254600154035b60405190815260200161022f565b3480156102e357600080fd5b506102b26102f236600461289d565b610968565b34801561030357600080fd5b506102b2610973565b34801561031857600080fd5b506102b261032736600461289d565b610ac9565b34801561033857600080fd5b506102b26103473660046128d9565b610ae4565b34801561035857600080fd5b506102b2610367366004612977565b610b4a565b34801561037857600080fd5b5061027a610387366004612843565b610c22565b34801561039857600080fd5b506102236103a73660046129ba565b610c34565b3480156103b857600080fd5b506102c96103c73660046129dc565b610c57565b3480156103d857600080fd5b506102b2610cbf565b3480156103ed57600080fd5b50600a54600b546104359163ffffffff8082169267ffffffffffffffff6401000000008404811693600160601b810490931692600160801b900416906001600160a01b031685565b6040805163ffffffff968716815267ffffffffffffffff958616602082015295909316928501929092529190911660608301526001600160a01b0316608082015260a00161022f565b34801561048a57600080fd5b506102b2610499366004612843565b610d25565b3480156104aa57600080fd5b506102c97f000000000000000000000000000000000000000000000000000000000000000081565b3480156104de57600080fd5b506000546001600160a01b031661027a565b3480156104fc57600080fd5b5061051061050b366004612843565b610f3e565b6040805182516001600160a01b0316815260208084015167ffffffffffffffff16908201529181015115159082015260600161022f565b34801561055357600080fd5b5061024d610f64565b34801561056857600080fd5b506102c9610f73565b6102b261057f366004612843565b610fd9565b34801561059057600080fd5b506102b261059f3660046129f7565b6111c6565b3480156105b057600080fd5b506001546102c9565b3480156105c557600080fd5b506102b26105d4366004612ad6565b611274565b3480156105e557600080fd5b506102c97f000000000000000000000000000000000000000000000000000000000000000081565b34801561061957600080fd5b5061024d610628366004612843565b6112c5565b34801561063957600080fd5b506102c96106483660046129dc565b611361565b34801561065957600080fd5b506102b2610668366004612b3e565b611395565b34801561067957600080fd5b50610223610688366004612b71565b6001600160a01b03918216600090815260086020908152604080832093909416825291909152205460ff1690565b6102b26106c4366004612b9b565b611468565b3480156106d557600080fd5b506102b26106e43660046129dc565b61176f565b3480156106f557600080fd5b506102c97f000000000000000000000000000000000000000000000000000000000000000081565b60006001600160e01b031982167f80ac58cd00000000000000000000000000000000000000000000000000000000148061078057506001600160e01b031982167f5b5e139f00000000000000000000000000000000000000000000000000000000145b806107b457507f01ffc9a7000000000000000000000000000000000000000000000000000000006001600160e01b03198316145b92915050565b6060600380546107c990612beb565b80601f01602080910402602001604051908101604052809291908181526020018280546107f590612beb565b80156108425780601f1061081757610100808354040283529160200191610842565b820191906000526020600020905b81548152906001019060200180831161082557829003601f168201915b5050505050905090565b600061085782611851565b61088d576040517fcf4700e400000000000000000000000000000000000000000000000000000000815260040160405180910390fd5b506000908152600760205260409020546001600160a01b031690565b60006108b482610c22565b9050806001600160a01b0316836001600160a01b031603610901576040517f943f7b8c00000000000000000000000000000000000000000000000000000000815260040160405180910390fd5b336001600160a01b03821614801590610921575061091f8133610688565b155b15610958576040517fcfb3b94200000000000000000000000000000000000000000000000000000000815260040160405180910390fd5b61096383838361187d565b505050565b6109638383836118e6565b6000546001600160a01b031633146109d25760405162461bcd60e51b815260206004820181905260248201527f4f776e61626c653a2063616c6c6572206973206e6f7420746865206f776e657260448201526064015b60405180910390fd5b600260095403610a245760405162461bcd60e51b815260206004820152601f60248201527f5265656e7472616e637947756172643a207265656e7472616e742063616c6c0060448201526064016109c9565b6002600955604051600090339047908381818185875af1925050503d8060008114610a6b576040519150601f19603f3d011682016040523d82523d6000602084013e610a70565b606091505b5050905080610ac15760405162461bcd60e51b815260206004820152601060248201527f5472616e73666572206661696c65642e0000000000000000000000000000000060448201526064016109c9565b506001600955565b61096383838360405180602001604052806000815250611274565b6000546001600160a01b03163314610b3e5760405162461bcd60e51b815260206004820181905260248201527f4f776e61626c653a2063616c6c6572206973206e6f7420746865206f776e657260448201526064016109c9565b610963600c838361270c565b6000546001600160a01b03163314610ba45760405162461bcd60e51b815260206004820181905260248201527f4f776e61626c653a2063616c6c6572206973206e6f7420746865206f776e657260448201526064016109c9565b600a805467ffffffffffffffff909316640100000000027fffffffffffffffffffffffffffffffffffffffff00000000000000000000000090931663ffffffff9094169390931791909117909155600b80546001600160a01b0390921673ffffffffffffffffffffffffffffffffffffffff19909216919091179055565b6000610c2d82611b22565b5192915050565b60008215801590610c4457508115155b8015610c505750814210155b9392505050565b60006001600160a01b038216610c99576040517f8f4eb60400000000000000000000000000000000000000000000000000000000815260040160405180910390fd5b506001600160a01b031660009081526006602052604090205467ffffffffffffffff1690565b6000546001600160a01b03163314610d195760405162461bcd60e51b815260206004820181905260248201527f4f776e61626c653a2063616c6c6572206973206e6f7420746865206f776e657260448201526064016109c9565b610d236000611c57565b565b6000546001600160a01b03163314610d7f5760405162461bcd60e51b815260206004820181905260248201527f4f776e61626c653a2063616c6c6572206973206e6f7420746865206f776e657260448201526064016109c9565b7f000000000000000000000000000000000000000000000000000000000000000081610dae6002546001540390565b610db89190612c3b565b1115610e2c5760405162461bcd60e51b815260206004820152602760248201527f746f6f206d616e7920616c7265616479206d696e746564206265666f7265206460448201527f6576206d696e740000000000000000000000000000000000000000000000000060648201526084016109c9565b610e567f000000000000000000000000000000000000000000000000000000000000000082612c69565b15610ec95760405162461bcd60e51b815260206004820152602c60248201527f63616e206f6e6c79206d696e742061206d756c7469706c65206f66207468652060448201527f6d6178426174636853697a65000000000000000000000000000000000000000060648201526084016109c9565b6000610ef57f000000000000000000000000000000000000000000000000000000000000000083612c7d565b905060005b8181101561096357610f2c337f0000000000000000000000000000000000000000000000000000000000000000611cb4565b80610f3681612c91565b915050610efa565b60408051606081018252600080825260208201819052918101919091526107b482611b22565b6060600480546107c990612beb565b600a54600090600160601b900463ffffffff1615801590610fa35750600a5442600160601b90910463ffffffff16105b15610fc05750600a54600160801b900467ffffffffffffffff1690565b50600a54640100000000900467ffffffffffffffff1690565b3233146110285760405162461bcd60e51b815260206004820152601e60248201527f5468652063616c6c657220697320616e6f7468657220636f6e7472616374000060448201526064016109c9565b600a54600160801b810467ffffffffffffffff1690600160601b900463ffffffff166110548282610c34565b6110a05760405162461bcd60e51b815260206004820152601660248201527f73616c6520686173206e6f7420626567756e207965740000000000000000000060448201526064016109c9565b7f0000000000000000000000000000000000000000000000000000000000000000836110cf6002546001540390565b6110d99190612c3b565b11156111275760405162461bcd60e51b815260206004820152601260248201527f72656163686564206d617820737570706c79000000000000000000000000000060448201526064016109c9565b7f00000000000000000000000000000000000000000000000000000000000000008361115233611361565b61115c9190612c3b565b11156111aa5760405162461bcd60e51b815260206004820152601660248201527f63616e206e6f74206d696e742074686973206d616e790000000000000000000060448201526064016109c9565b6111b43384611cb4565b6109636111c18484612caa565b611cd2565b336001600160a01b03831603611208576040517fb06307db00000000000000000000000000000000000000000000000000000000815260040160405180910390fd5b3360008181526008602090815260408083206001600160a01b03871680855290835292819020805460ff191686151590811790915590519081529192917f17307eab39ab6107e8899845ad3d59bd9653f200f220920489ca2b5937696c31910160405180910390a35050565b61127f8484846118e6565b6001600160a01b0383163b151580156112a1575061129f84848484611d60565b155b156112bf576040516368d2bf6b60e11b815260040160405180910390fd5b50505050565b60606112d082611851565b611306576040517fa14c4b5000000000000000000000000000000000000000000000000000000000815260040160405180910390fd5b6000611310611e4c565b905080516000036113305760405180602001604052806000815250610c50565b8061133a84611e5b565b60405160200161134b929190612cc9565b6040516020818303038152906040529392505050565b6001600160a01b03811660009081526006602052604081205468010000000000000000900467ffffffffffffffff166107b4565b6000546001600160a01b031633146113ef5760405162461bcd60e51b815260206004820181905260248201527f4f776e61626c653a2063616c6c6572206973206e6f7420746865206f776e657260448201526064016109c9565b600a805467ffffffffffffffff909216600160801b027fffffffffffffffff0000000000000000ffffffffffffffffffffffffffffffff63ffffffff909416600160601b02939093167fffffffffffffffff000000000000000000000000ffffffffffffffffffffffff90921691909117919091179055565b3233146114b75760405162461bcd60e51b815260206004820152601e60248201527f5468652063616c6c657220697320616e6f7468657220636f6e7472616374000060448201526064016109c9565b600a5467ffffffffffffffff6401000000008204169063ffffffff166114dd8282610c34565b6115295760405162461bcd60e51b815260206004820181905260248201527f77686974656c6973742073616c6520686173206e6f7420626567756e2079657460448201526064016109c9565b7f0000000000000000000000000000000000000000000000000000000000000000856115586002546001540390565b6115629190612c3b565b11156115fc5760405162461bcd60e51b815260206004820152604560248201527f6e6f7420656e6f7567682072656d61696e696e6720726573657276656420666f60448201527f722073616c6520746f20737570706f72742064657369726564206d696e74206160648201527f6d6f756e74000000000000000000000000000000000000000000000000000000608482015260a4016109c9565b7f0000000000000000000000000000000000000000000000000000000000000000841115801561163f5750838561163233611361565b61163c9190612c3b565b11155b61168b5760405162461bcd60e51b815260206004820152601660248201527f63616e206e6f74206d696e742074686973206d616e790000000000000000000060448201526064016109c9565b600061169633611f5c565b61169f86611e5b565b6040516020016116b0929190612cf8565b604051602081830303815290604052905060006116cc826120f7565b905060006116da8287612132565b600b549091506001600160a01b0380831691161461173a5760405162461bcd60e51b815260206004820152600960248201527f77726f6e6720736967000000000000000000000000000000000000000000000060448201526064016109c9565b600088611745610f73565b61174f9190612caa565b905061175b338a611cb4565b61176481611cd2565b505050505050505050565b6000546001600160a01b031633146117c95760405162461bcd60e51b815260206004820181905260248201527f4f776e61626c653a2063616c6c6572206973206e6f7420746865206f776e657260448201526064016109c9565b6001600160a01b0381166118455760405162461bcd60e51b815260206004820152602660248201527f4f776e61626c653a206e6577206f776e657220697320746865207a65726f206160448201527f646472657373000000000000000000000000000000000000000000000000000060648201526084016109c9565b61184e81611c57565b50565b6000600154821080156107b4575050600090815260056020526040902054600160e01b900460ff161590565b600082815260076020526040808220805473ffffffffffffffffffffffffffffffffffffffff19166001600160a01b0387811691821790925591518593918516917f8c5be1e5ebec7d5bd14f71427d1e84f3dd0314c0f7b2291e5b200ac8c7c3b92591a4505050565b60006118f182611b22565b9050836001600160a01b031681600001516001600160a01b031614611942576040517fa114810000000000000000000000000000000000000000000000000000000000815260040160405180910390fd5b6000336001600160a01b038616148061196057506119608533610688565b8061197b5750336119708461084c565b6001600160a01b0316145b9050806119b4576040517f59c896be00000000000000000000000000000000000000000000000000000000815260040160405180910390fd5b6001600160a01b0384166119f4576040517fea553b3400000000000000000000000000000000000000000000000000000000815260040160405180910390fd5b611a006000848761187d565b6001600160a01b038581166000908152600660209081526040808320805467ffffffffffffffff1980821667ffffffffffffffff92831660001901831617909255898616808652838620805493841693831660019081018416949094179055898652600590945282852080546001600160e01b031916909417600160a01b42909216919091021783558701808452922080549193909116611ad6576001548214611ad6578054602086015167ffffffffffffffff16600160a01b026001600160e01b03199091166001600160a01b038a16171781555b50505082846001600160a01b0316866001600160a01b03167fddf252ad1be2c89b69c2b068fc378daa952ba7f163c4a11628f55a4df523b3ef60405160405180910390a45b5050505050565b604080516060810182526000808252602082018190529181019190915281600154811015611c2557600081815260056020908152604091829020825160608101845290546001600160a01b0381168252600160a01b810467ffffffffffffffff1692820192909252600160e01b90910460ff16151591810182905290611c235780516001600160a01b031615611bb9579392505050565b5060001901600081815260056020908152604091829020825160608101845290546001600160a01b038116808352600160a01b820467ffffffffffffffff1693830193909352600160e01b900460ff1615159281019290925215611c1e579392505050565b611bb9565b505b6040517fdf2d9b4200000000000000000000000000000000000000000000000000000000815260040160405180910390fd5b600080546001600160a01b0383811673ffffffffffffffffffffffffffffffffffffffff19831681178455604051919092169283917f8be0079c531659141344cd1fd0a4f28419497f9722a3daafe3b4186f6b6457e09190a35050565b611cce828260405180602001604052806000815250612156565b5050565b80341015611d225760405162461bcd60e51b815260206004820152601660248201527f4e65656420746f2073656e64206d6f7265204554482e0000000000000000000060448201526064016109c9565b8034111561184e57336108fc611d388334612d50565b6040518115909202916000818181858888f19350505050158015611cce573d6000803e3d6000fd5b604051630a85bd0160e11b81526000906001600160a01b0385169063150b7a0290611d95903390899088908890600401612d67565b6020604051808303816000875af1925050508015611dd0575060408051601f3d908101601f19168201909252611dcd91810190612da3565b60015b611e2e573d808015611dfe576040519150601f19603f3d011682016040523d82523d6000602084013e611e03565b606091505b508051600003611e26576040516368d2bf6b60e11b815260040160405180910390fd5b805181602001fd5b6001600160e01b031916630a85bd0160e11b1490505b949350505050565b6060600c80546107c990612beb565b606081600003611e825750506040805180820190915260018152600360fc1b602082015290565b8160005b8115611eac5780611e9681612c91565b9150611ea59050600a83612c7d565b9150611e86565b60008167ffffffffffffffff811115611ec757611ec7612a33565b6040519080825280601f01601f191660200182016040528015611ef1576020820181803683370190505b5090505b8415611e4457611f06600183612d50565b9150611f13600a86612c69565b611f1e906030612c3b565b60f81b818381518110611f3357611f33612dc0565b60200101906001600160f81b031916908160001a905350611f55600a86612c7d565b9450611ef5565b60408051602a8082526060828101909352600091906020820181803683370190505090506000839050600360fc1b82600081518110611f9d57611f9d612dc0565b60200101906001600160f81b031916908160001a9053507f580000000000000000000000000000000000000000000000000000000000000082600181518110611fe857611fe8612dc0565b60200101906001600160f81b031916908160001a90535060005b60148110156120ee576000612018826013612d50565b612023906008612caa565b6001600160a01b038416901c9050600f600482901c16600061204860f0841684612dd6565b905061205382612163565b8661205f866002612caa565b61206a906002612c3b565b8151811061207a5761207a612dc0565b60200101906001600160f81b031916908160001a90535061209a81612163565b866120a6866002612caa565b6120b1906003612c3b565b815181106120c1576120c1612dc0565b60200101906001600160f81b031916908160001a90535050505080806120e690612c91565b915050612002565b50909392505050565b60006121038251611e5b565b82604051602001612115929190612df9565b604051602081830303815290604052805190602001209050919050565b60008060006121418585612195565b9150915061214e81612203565b509392505050565b61096383838360016123b9565b6000600a8260ff1610156121855761217c826030612e54565b60f81b92915050565b61217c826037612e54565b919050565b60008082516041036121cb5760208301516040840151606085015160001a6121bf878285856125cd565b945094505050506121fc565b82516040036121f457602083015160408401516121e98683836126ba565b9350935050506121fc565b506000905060025b9250929050565b600081600481111561221757612217612e79565b0361221f5750565b600181600481111561223357612233612e79565b036122805760405162461bcd60e51b815260206004820152601860248201527f45434453413a20696e76616c6964207369676e6174757265000000000000000060448201526064016109c9565b600281600481111561229457612294612e79565b036122e15760405162461bcd60e51b815260206004820152601f60248201527f45434453413a20696e76616c6964207369676e6174757265206c656e6774680060448201526064016109c9565b60038160048111156122f5576122f5612e79565b0361234d5760405162461bcd60e51b815260206004820152602260248201527f45434453413a20696e76616c6964207369676e6174757265202773272076616c604482015261756560f01b60648201526084016109c9565b600481600481111561236157612361612e79565b0361184e5760405162461bcd60e51b815260206004820152602260248201527f45434453413a20696e76616c6964207369676e6174757265202776272076616c604482015261756560f01b60648201526084016109c9565b6001546001600160a01b0385166123fc576040517f2e07630000000000000000000000000000000000000000000000000000000000815260040160405180910390fd5b83600003612436576040517fb562e8dd00000000000000000000000000000000000000000000000000000000815260040160405180910390fd5b6001600160a01b038516600081815260066020908152604080832080547fffffffffffffffffffffffffffffffff00000000000000000000000000000000811667ffffffffffffffff8083168c0181169182176801000000000000000067ffffffffffffffff1990941690921783900481168c01811690920217909155858452600590925290912080546001600160e01b031916909217600160a01b4290921691909102179055808085018380156124f757506001600160a01b0387163b15155b1561257f575b60405182906001600160a01b038916906000907fddf252ad1be2c89b69c2b068fc378daa952ba7f163c4a11628f55a4df523b3ef908290a46125486000888480600101955088611d60565b612565576040516368d2bf6b60e11b815260040160405180910390fd5b8082036124fd57826001541461257a57600080fd5b6125c4565b5b6040516001830192906001600160a01b038916906000907fddf252ad1be2c89b69c2b068fc378daa952ba7f163c4a11628f55a4df523b3ef908290a4808203612580575b50600155611b1b565b6000807f7fffffffffffffffffffffffffffffff5d576e7357a4501ddfe92f46681b20a083111561260457506000905060036126b1565b8460ff16601b1415801561261c57508460ff16601c14155b1561262d57506000905060046126b1565b6040805160008082526020820180845289905260ff881692820192909252606081018690526080810185905260019060a0016020604051602081039080840390855afa158015612681573d6000803e3d6000fd5b5050604051601f1901519150506001600160a01b0381166126aa576000600192509250506126b1565b9150600090505b94509492505050565b6000807f7fffffffffffffffffffffffffffffffffffffffffffffffffffffffffffffff8316816126f060ff86901c601b612c3b565b90506126fe878288856125cd565b935093505050935093915050565b82805461271890612beb565b90600052602060002090601f01602090048101928261273a5760008555612780565b82601f106127535782800160ff19823516178555612780565b82800160010185558215612780579182015b82811115612780578235825591602001919060010190612765565b5061278c929150612790565b5090565b5b8082111561278c5760008155600101612791565b6001600160e01b03198116811461184e57600080fd5b6000602082840312156127cd57600080fd5b8135610c50816127a5565b60005b838110156127f35781810151838201526020016127db565b838111156112bf5750506000910152565b6000815180845261281c8160208601602086016127d8565b601f01601f19169290920160200192915050565b602081526000610c506020830184612804565b60006020828403121561285557600080fd5b5035919050565b80356001600160a01b038116811461219057600080fd5b6000806040838503121561288657600080fd5b61288f8361285c565b946020939093013593505050565b6000806000606084860312156128b257600080fd5b6128bb8461285c565b92506128c96020850161285c565b9150604084013590509250925092565b600080602083850312156128ec57600080fd5b823567ffffffffffffffff8082111561290457600080fd5b818501915085601f83011261291857600080fd5b81358181111561292757600080fd5b86602082850101111561293957600080fd5b60209290920196919550909350505050565b803563ffffffff8116811461219057600080fd5b803567ffffffffffffffff8116811461219057600080fd5b60008060006060848603121561298c57600080fd5b6129958461294b565b92506129a36020850161295f565b91506129b16040850161285c565b90509250925092565b600080604083850312156129cd57600080fd5b50508035926020909101359150565b6000602082840312156129ee57600080fd5b610c508261285c565b60008060408385031215612a0a57600080fd5b612a138361285c565b915060208301358015158114612a2857600080fd5b809150509250929050565b634e487b7160e01b600052604160045260246000fd5b600082601f830112612a5a57600080fd5b813567ffffffffffffffff80821115612a7557612a75612a33565b604051601f8301601f19908116603f01168101908282118183101715612a9d57612a9d612a33565b81604052838152866020858801011115612ab657600080fd5b836020870160208301376000602085830101528094505050505092915050565b60008060008060808587031215612aec57600080fd5b612af58561285c565b9350612b036020860161285c565b925060408501359150606085013567ffffffffffffffff811115612b2657600080fd5b612b3287828801612a49565b91505092959194509250565b60008060408385031215612b5157600080fd5b612b5a8361294b565b9150612b686020840161295f565b90509250929050565b60008060408385031215612b8457600080fd5b612b8d8361285c565b9150612b686020840161285c565b600080600060608486031215612bb057600080fd5b8335925060208401359150604084013567ffffffffffffffff811115612bd557600080fd5b612be186828701612a49565b9150509250925092565b600181811c90821680612bff57607f821691505b602082108103612c1f57634e487b7160e01b600052602260045260246000fd5b50919050565b634e487b7160e01b600052601160045260246000fd5b60008219821115612c4e57612c4e612c25565b500190565b634e487b7160e01b600052601260045260246000fd5b600082612c7857612c78612c53565b500690565b600082612c8c57612c8c612c53565b500490565b600060018201612ca357612ca3612c25565b5060010190565b6000816000190483118215151615612cc457612cc4612c25565b500290565b60008351612cdb8184602088016127d8565b835190830190612cef8183602088016127d8565b01949350505050565b60008351612d0a8184602088016127d8565b7f3a000000000000000000000000000000000000000000000000000000000000009083019081528351612d448160018401602088016127d8565b01600101949350505050565b600082821015612d6257612d62612c25565b500390565b60006001600160a01b03808716835280861660208401525083604083015260806060830152612d996080830184612804565b9695505050505050565b600060208284031215612db557600080fd5b8151610c50816127a5565b634e487b7160e01b600052603260045260246000fd5b600060ff821660ff841680821015612df057612df0612c25565b90039392505050565b7f19457468657265756d205369676e6564204d6573736167653a0a000000000000815260008351612e3181601a8501602088016127d8565b835190830190612e4881601a8401602088016127d8565b01601a01949350505050565b600060ff821660ff84168060ff03821115612e7157612e71612c25565b019392505050565b634e487b7160e01b600052602160045260246000fdfea264697066735822122016317e40a2e28771d40e5b02f5092a128213984e5474534d6572d8dc4e7ab9a064736f6c634300080d0033",
  "linkReferences": {},
  "deployedLinkReferences": {}
}