{
  "_format": "hh-sol-artifact-1",
  "contractName": "BattlePass",
  "sourceName": "contracts/exv.nft.battlepass.sol",
  "abi": [
    {
      "inputs": [
        {
          "internalType": "string",
          "name": "name_",
          "type": "string"
        },
        {
          "internalType": "string",
          "name": "symbol_",
          "type": "string"
        },
        {
          "internalType": "uint256",
          "name": "maxBatchSize_",
          "type": "uint256"
        },
        {
          "internalType": "uint256",
          "name": "collectionSize_",
          "type": "uint256"
        },
        {
          "internalType": "uint256",
          "name": "amountForDevs_",
          "type": "uint256"
        }
      ],
      "stateMutability": "nonpayable",
      "type": "constructor"
    },
    {
      "inputs": [],
      "name": "ApprovalCallerNotOwnerNorApproved",
      "type": "error"
    },
    {
      "inputs": [],
      "name": "ApprovalQueryForNonexistentToken",
      "type": "error"
    },
    {
      "inputs": [],
      "name": "ApprovalToCurrentOwner",
      "type": "error"
    },
    {
      "inputs": [],
      "name": "ApproveToCaller",
      "type": "error"
    },
    {
      "inputs": [],
      "name": "BalanceQueryForZeroAddress",
      "type": "error"
    },
    {
      "inputs": [],
      "name": "MintToZeroAddress",
      "type": "error"
    },
    {
      "inputs": [],
      "name": "MintZeroQuantity",
      "type": "error"
    },
    {
      "inputs": [],
      "name": "OwnerQueryForNonexistentToken",
      "type": "error"
    },
    {
      "inputs": [],
      "name": "TransferCallerNotOwnerNorApproved",
      "type": "error"
    },
    {
      "inputs": [],
      "name": "TransferFromIncorrectOwner",
      "type": "error"
    },
    {
      "inputs": [],
      "name": "TransferToNonERC721ReceiverImplementer",
      "type": "error"
    },
    {
      "inputs": [],
      "name": "TransferToZeroAddress",
      "type": "error"
    },
    {
      "inputs": [],
      "name": "URIQueryForNonexistentToken",
      "type": "error"
    },
    {
      "anonymous": false,
      "inputs": [
        {
          "indexed": true,
          "internalType": "address",
          "name": "owner",
          "type": "address"
        },
        {
          "indexed": true,
          "internalType": "address",
          "name": "approved",
          "type": "address"
        },
        {
          "indexed": true,
          "internalType": "uint256",
          "name": "tokenId",
          "type": "uint256"
        }
      ],
      "name": "Approval",
      "type": "event"
    },
    {
      "anonymous": false,
      "inputs": [
        {
          "indexed": true,
          "internalType": "address",
          "name": "owner",
          "type": "address"
        },
        {
          "indexed": true,
          "internalType": "address",
          "name": "operator",
          "type": "address"
        },
        {
          "indexed": false,
          "internalType": "bool",
          "name": "approved",
          "type": "bool"
        }
      ],
      "name": "ApprovalForAll",
      "type": "event"
    },
    {
      "anonymous": false,
      "inputs": [
        {
          "indexed": true,
          "internalType": "address",
          "name": "previousOwner",
          "type": "address"
        },
        {
          "indexed": true,
          "internalType": "address",
          "name": "newOwner",
          "type": "address"
        }
      ],
      "name": "OwnershipTransferred",
      "type": "event"
    },
    {
      "anonymous": false,
      "inputs": [
        {
          "indexed": true,
          "internalType": "address",
          "name": "from",
          "type": "address"
        },
        {
          "indexed": true,
          "internalType": "address",
          "name": "to",
          "type": "address"
        },
        {
          "indexed": true,
          "internalType": "uint256",
          "name": "tokenId",
          "type": "uint256"
        }
      ],
      "name": "Transfer",
      "type": "event"
    },
    {
      "inputs": [],
      "name": "amountForDevs",
      "outputs": [
        {
          "internalType": "uint256",
          "name": "",
          "type": "uint256"
        }
      ],
      "stateMutability": "view",
      "type": "function"
    },
    {
      "inputs": [
        {
          "internalType": "address",
          "name": "to",
          "type": "address"
        },
        {
          "internalType": "uint256",
          "name": "tokenId",
          "type": "uint256"
        }
      ],
      "name": "approve",
      "outputs": [],
      "stateMutability": "nonpayable",
      "type": "function"
    },
    {
      "inputs": [
        {
          "internalType": "address",
          "name": "owner",
          "type": "address"
        }
      ],
      "name": "balanceOf",
      "outputs": [
        {
          "internalType": "uint256",
          "name": "",
          "type": "uint256"
        }
      ],
      "stateMutability": "view",
      "type": "function"
    },
    {
      "inputs": [],
      "name": "collectionSize",
      "outputs": [
        {
          "internalType": "uint256",
          "name": "",
          "type": "uint256"
        }
      ],
      "stateMutability": "view",
      "type": "function"
    },
    {
      "inputs": [],
      "name": "config",
      "outputs": [
        {
          "internalType": "uint32",
          "name": "whitelistSaleStartTime",
          "type": "uint32"
        },
        {
          "internalType": "uint32",
          "name": "publicSaleStartTime",
          "type": "uint32"
        },
        {
          "internalType": "uint64",
          "name": "priceWei",
          "type": "uint64"
        },
        {
          "internalType": "address",
          "name": "whitelistSigner",
          "type": "address"
        }
      ],
      "stateMutability": "view",
      "type": "function"
    },
    {
      "inputs": [
        {
          "internalType": "uint256",
          "name": "tokenId",
          "type": "uint256"
        }
      ],
      "name": "getApproved",
      "outputs": [
        {
          "internalType": "address",
          "name": "",
          "type": "address"
        }
      ],
      "stateMutability": "view",
      "type": "function"
    },
    {
      "inputs": [
        {
          "internalType": "uint256",
          "name": "tokenId",
          "type": "uint256"
        }
      ],
      "name": "getOwnershipData",
      "outputs": [
        {
          "components": [
            {
              "internalType": "address",
              "name": "addr",
              "type": "address"
            },
            {
              "internalType": "uint64",
              "name": "startTimestamp",
              "type": "uint64"
            },
            {
              "internalType": "bool",
              "name": "burned",
              "type": "bool"
            }
          ],
          "internalType": "struct ERC721A.TokenOwnership",
          "name": "",
          "type": "tuple"
        }
      ],
      "stateMutability": "view",
      "type": "function"
    },
    {
      "inputs": [
        {
          "internalType": "address",
          "name": "owner",
          "type": "address"
        },
        {
          "internalType": "address",
          "name": "operator",
          "type": "address"
        }
      ],
      "name": "isApprovedForAll",
      "outputs": [
        {
          "internalType": "bool",
          "name": "",
          "type": "bool"
        }
      ],
      "stateMutability": "view",
      "type": "function"
    },
    {
      "inputs": [
        {
          "internalType": "uint256",
          "name": "_price",
          "type": "uint256"
        },
        {
          "internalType": "uint256",
          "name": "_startTime",
          "type": "uint256"
        }
      ],
      "name": "isSaleOn",
      "outputs": [
        {
          "internalType": "bool",
          "name": "",
          "type": "bool"
        }
      ],
      "stateMutability": "view",
      "type": "function"
    },
    {
      "inputs": [],
      "name": "maxBatchSize",
      "outputs": [
        {
          "internalType": "uint256",
          "name": "",
          "type": "uint256"
        }
      ],
      "stateMutability": "view",
      "type": "function"
    },
    {
      "inputs": [],
      "name": "maxPerAddressDuringMint",
      "outputs": [
        {
          "internalType": "uint256",
          "name": "",
          "type": "uint256"
        }
      ],
      "stateMutability": "view",
      "type": "function"
    },
    {
      "inputs": [
        {
          "internalType": "uint256",
          "name": "quantity",
          "type": "uint256"
        }
      ],
      "name": "mint",
      "outputs": [],
      "stateMutability": "payable",
      "type": "function"
    },
    {
      "inputs": [],
      "name": "name",
      "outputs": [
        {
          "internalType": "string",
          "name": "",
          "type": "string"
        }
      ],
      "stateMutability": "view",
      "type": "function"
    },
    {
      "inputs": [
        {
          "internalType": "address",
          "name": "owner",
          "type": "address"
        }
      ],
      "name": "numberMinted",
      "outputs": [
        {
          "internalType": "uint256",
          "name": "",
          "type": "uint256"
        }
      ],
      "stateMutability": "view",
      "type": "function"
    },
    {
      "inputs": [],
      "name": "owner",
      "outputs": [
        {
          "internalType": "address",
          "name": "",
          "type": "address"
        }
      ],
      "stateMutability": "view",
      "type": "function"
    },
    {
      "inputs": [
        {
          "internalType": "uint256",
          "name": "tokenId",
          "type": "uint256"
        }
      ],
      "name": "ownerOf",
      "outputs": [
        {
          "internalType": "address",
          "name": "",
          "type": "address"
        }
      ],
      "stateMutability": "view",
      "type": "function"
    },
    {
      "inputs": [],
      "name": "renounceOwnership",
      "outputs": [],
      "stateMutability": "nonpayable",
      "type": "function"
    },
    {
      "inputs": [
        {
          "internalType": "uint256",
          "name": "quantity",
          "type": "uint256"
        }
      ],
      "name": "reserve",
      "outputs": [],
      "stateMutability": "nonpayable",
      "type": "function"
    },
    {
      "inputs": [
        {
          "internalType": "address",
          "name": "from",
          "type": "address"
        },
        {
          "internalType": "address",
          "name": "to",
          "type": "address"
        },
        {
          "internalType": "uint256",
          "name": "tokenId",
          "type": "uint256"
        }
      ],
      "name": "safeTransferFrom",
      "outputs": [],
      "stateMutability": "nonpayable",
      "type": "function"
    },
    {
      "inputs": [
        {
          "internalType": "address",
          "name": "from",
          "type": "address"
        },
        {
          "internalType": "address",
          "name": "to",
          "type": "address"
        },
        {
          "internalType": "uint256",
          "name": "tokenId",
          "type": "uint256"
        },
        {
          "internalType": "bytes",
          "name": "_data",
          "type": "bytes"
        }
      ],
      "name": "safeTransferFrom",
      "outputs": [],
      "stateMutability": "nonpayable",
      "type": "function"
    },
    {
      "inputs": [
        {
          "internalType": "address",
          "name": "operator",
          "type": "address"
        },
        {
          "internalType": "bool",
          "name": "approved",
          "type": "bool"
        }
      ],
      "name": "setApprovalForAll",
      "outputs": [],
      "stateMutability": "nonpayable",
      "type": "function"
    },
    {
      "inputs": [
        {
          "internalType": "string",
          "name": "baseURI",
          "type": "string"
        }
      ],
      "name": "setBaseURI",
      "outputs": [],
      "stateMutability": "nonpayable",
      "type": "function"
    },
    {
      "inputs": [
        {
          "internalType": "uint64",
          "name": "price",
          "type": "uint64"
        }
      ],
      "name": "setPrice",
      "outputs": [],
      "stateMutability": "nonpayable",
      "type": "function"
    },
    {
      "inputs": [
        {
          "internalType": "uint32",
          "name": "timestamp",
          "type": "uint32"
        }
      ],
      "name": "setPublicSaleConfig",
      "outputs": [],
      "stateMutability": "nonpayable",
      "type": "function"
    },
    {
      "inputs": [
        {
          "internalType": "uint32",
          "name": "timestamp",
          "type": "uint32"
        },
        {
          "internalType": "address",
          "name": "signer",
          "type": "address"
        }
      ],
      "name": "setWhitelistSaleConfig",
      "outputs": [],
      "stateMutability": "nonpayable",
      "type": "function"
    },
    {
      "inputs": [
        {
          "internalType": "bytes4",
          "name": "interfaceId",
          "type": "bytes4"
        }
      ],
      "name": "supportsInterface",
      "outputs": [
        {
          "internalType": "bool",
          "name": "",
          "type": "bool"
        }
      ],
      "stateMutability": "view",
      "type": "function"
    },
    {
      "inputs": [],
      "name": "symbol",
      "outputs": [
        {
          "internalType": "string",
          "name": "",
          "type": "string"
        }
      ],
      "stateMutability": "view",
      "type": "function"
    },
    {
      "inputs": [
        {
          "internalType": "uint256",
          "name": "tokenId",
          "type": "uint256"
        }
      ],
      "name": "tokenURI",
      "outputs": [
        {
          "internalType": "string",
          "name": "",
          "type": "string"
        }
      ],
      "stateMutability": "view",
      "type": "function"
    },
    {
      "inputs": [],
      "name": "totalMinted",
      "outputs": [
        {
          "internalType": "uint256",
          "name": "",
          "type": "uint256"
        }
      ],
      "stateMutability": "view",
      "type": "function"
    },
    {
      "inputs": [],
      "name": "totalSupply",
      "outputs": [
        {
          "internalType": "uint256",
          "name": "",
          "type": "uint256"
        }
      ],
      "stateMutability": "view",
      "type": "function"
    },
    {
      "inputs": [
        {
          "internalType": "address",
          "name": "from",
          "type": "address"
        },
        {
          "internalType": "address",
          "name": "to",
          "type": "address"
        },
        {
          "internalType": "uint256",
          "name": "tokenId",
          "type": "uint256"
        }
      ],
      "name": "transferFrom",
      "outputs": [],
      "stateMutability": "nonpayable",
      "type": "function"
    },
    {
      "inputs": [
        {
          "internalType": "address",
          "name": "newOwner",
          "type": "address"
        }
      ],
      "name": "transferOwnership",
      "outputs": [],
      "stateMutability": "nonpayable",
      "type": "function"
    },
    {
      "inputs": [
        {
          "internalType": "uint256",
          "name": "quantity",
          "type": "uint256"
        },
        {
          "internalType": "bytes",
          "name": "signature",
          "type": "bytes"
        }
      ],
      "name": "whitelistMint",
      "outputs": [],
      "stateMutability": "payable",
      "type": "function"
    },
    {
      "inputs": [],
      "name": "withdraw",
      "outputs": [],
      "stateMutability": "nonpayable",
      "type": "function"
    }
  ],
  "bytecode": "0x6101006040523480156200001257600080fd5b506040516200322e3803806200322e833981016040819052620000359162000293565b84846200004233620000d0565b81516200005790600390602085019062000120565b5080516200006d90600490602084019062000120565b506001808155600981905560a084905260e086905260c08590526080525050600a8054600160401b600160801b03191664b1a2bc2ec560511b17905581811115620000b757600080fd5b81831115620000c557600080fd5b505050505062000354565b600080546001600160a01b038381166001600160a01b0319831681178455604051919092169283917f8be0079c531659141344cd1fd0a4f28419497f9722a3daafe3b4186f6b6457e09190a35050565b8280546200012e9062000318565b90600052602060002090601f0160209004810192826200015257600085556200019d565b82601f106200016d57805160ff19168380011785556200019d565b828001600101855582156200019d579182015b828111156200019d57825182559160200191906001019062000180565b50620001ab929150620001af565b5090565b5b80821115620001ab5760008155600101620001b0565b634e487b7160e01b600052604160045260246000fd5b600082601f830112620001ee57600080fd5b81516001600160401b03808211156200020b576200020b620001c6565b604051601f8301601f19908116603f01168101908282118183101715620002365762000236620001c6565b816040528381526020925086838588010111156200025357600080fd5b600091505b8382101562000277578582018301518183018401529082019062000258565b83821115620002895760008385830101525b9695505050505050565b600080600080600060a08688031215620002ac57600080fd5b85516001600160401b0380821115620002c457600080fd5b620002d289838a01620001dc565b96506020880151915080821115620002e957600080fd5b50620002f888828901620001dc565b60408801516060890151608090990151979a919950979695509350505050565b600181811c908216806200032d57607f821691505b6020821081036200034e57634e487b7160e01b600052602260045260246000fd5b50919050565b60805160a05160c05160e051612e6f620003bf6000396000818161036801528181610f7301528181611012015261104a0152600081816103d101528181611182015261145601526000818161074f0152610ec901526000818161056901526114d70152612e6f6000f3fe6080604052600436106102195760003560e01c8063715018a61161011d578063a0712d68116100b0578063c87b56dd1161007f578063e985e9c511610064578063e985e9c5146106d4578063f2fde38b1461071d578063fbe1aa511461073d57600080fd5b8063c87b56dd14610694578063dc33e681146106b457600080fd5b8063a0712d6814610628578063a22cb4651461063b578063a2309ff81461065b578063b88d4fde1461067457600080fd5b80638da5cb5b116100ec5780638da5cb5b1461058b5780639231ab2a146105a957806395d89b41146106005780639e852f751461061557600080fd5b8063715018a61461049357806379502c55146104a8578063819b25ba146105375780638bc35c2f1461055757600080fd5b80632913daa0116101b057806355f804b31161017f5780636b12304e116101645780636b12304e146104335780636e8cfade1461045357806370a082311461047357600080fd5b806355f804b3146103f35780636352211e1461041357600080fd5b80632913daa0146103565780633ccfd60b1461038a57806342842e0e1461039f57806345c0f533146103bf57600080fd5b8063095ea7b3116101ec578063095ea7b3146102cf57806318160ddd146102ef578063229c20481461031657806323b872dd1461033657600080fd5b8063019b14631461021e57806301ffc9a71461024057806306fdde0314610275578063081812fc14610297575b600080fd5b34801561022a57600080fd5b5061023e6102393660046127a7565b610771565b005b34801561024c57600080fd5b5061026061025b3660046127d8565b6107f8565b60405190151581526020015b60405180910390f35b34801561028157600080fd5b5061028a610895565b60405161026c919061284d565b3480156102a357600080fd5b506102b76102b2366004612860565b610927565b6040516001600160a01b03909116815260200161026c565b3480156102db57600080fd5b5061023e6102ea366004612890565b610984565b3480156102fb57600080fd5b5060025460015403600019015b60405190815260200161026c565b34801561032257600080fd5b5061023e6103313660046128ba565b610a43565b34801561034257600080fd5b5061023e6103513660046128e4565b610ae4565b34801561036257600080fd5b506103087f000000000000000000000000000000000000000000000000000000000000000081565b34801561039657600080fd5b5061023e610aef565b3480156103ab57600080fd5b5061023e6103ba3660046128e4565b610c40565b3480156103cb57600080fd5b506103087f000000000000000000000000000000000000000000000000000000000000000081565b3480156103ff57600080fd5b5061023e61040e366004612920565b610c5b565b34801561041f57600080fd5b506102b761042e366004612860565b610cc1565b34801561043f57600080fd5b5061026061044e366004612992565b610cd3565b34801561045f57600080fd5b5061023e61046e3660046129b4565b610cf6565b34801561047f57600080fd5b5061030861048e3660046129e7565b610d99565b34801561049f57600080fd5b5061023e610e01565b3480156104b457600080fd5b50600a54600b546104f79163ffffffff8082169264010000000083049091169168010000000000000000900467ffffffffffffffff16906001600160a01b031684565b6040805163ffffffff958616815294909316602085015267ffffffffffffffff909116918301919091526001600160a01b0316606082015260800161026c565b34801561054357600080fd5b5061023e610552366004612860565b610e67565b34801561056357600080fd5b506103087f000000000000000000000000000000000000000000000000000000000000000081565b34801561059757600080fd5b506000546001600160a01b03166102b7565b3480156105b557600080fd5b506105c96105c4366004612860565b611080565b6040805182516001600160a01b0316815260208084015167ffffffffffffffff16908201529181015115159082015260600161026c565b34801561060c57600080fd5b5061028a6110a6565b61023e610623366004612aa5565b6110b5565b61023e610636366004612860565b611381565b34801561064757600080fd5b5061023e610656366004612aec565b611574565b34801561066757600080fd5b5060015460001901610308565b34801561068057600080fd5b5061023e61068f366004612b28565b611622565b3480156106a057600080fd5b5061028a6106af366004612860565b611673565b3480156106c057600080fd5b506103086106cf3660046129e7565b61170f565b3480156106e057600080fd5b506102606106ef366004612b90565b6001600160a01b03918216600090815260086020908152604080832093909416825291909152205460ff1690565b34801561072957600080fd5b5061023e6107383660046129e7565b611743565b34801561074957600080fd5b506103087f000000000000000000000000000000000000000000000000000000000000000081565b6000546001600160a01b031633146107d05760405162461bcd60e51b815260206004820181905260248201527f4f776e61626c653a2063616c6c6572206973206e6f7420746865206f776e657260448201526064015b60405180910390fd5b600a805463ffffffff9092166401000000000267ffffffff0000000019909216919091179055565b60006001600160e01b031982167f80ac58cd00000000000000000000000000000000000000000000000000000000148061085b57506001600160e01b031982167f5b5e139f00000000000000000000000000000000000000000000000000000000145b8061088f57507f01ffc9a7000000000000000000000000000000000000000000000000000000006001600160e01b03198316145b92915050565b6060600380546108a490612bac565b80601f01602080910402602001604051908101604052809291908181526020018280546108d090612bac565b801561091d5780601f106108f25761010080835404028352916020019161091d565b820191906000526020600020905b81548152906001019060200180831161090057829003601f168201915b5050505050905090565b600061093282611825565b610968576040517fcf4700e400000000000000000000000000000000000000000000000000000000815260040160405180910390fd5b506000908152600760205260409020546001600160a01b031690565b600061098f82610cc1565b9050806001600160a01b0316836001600160a01b0316036109dc576040517f943f7b8c00000000000000000000000000000000000000000000000000000000815260040160405180910390fd5b336001600160a01b038216148015906109fc57506109fa81336106ef565b155b15610a33576040517fcfb3b94200000000000000000000000000000000000000000000000000000000815260040160405180910390fd5b610a3e83838361185e565b505050565b6000546001600160a01b03163314610a9d5760405162461bcd60e51b815260206004820181905260248201527f4f776e61626c653a2063616c6c6572206973206e6f7420746865206f776e657260448201526064016107c7565b600a805467ffffffffffffffff90921668010000000000000000027fffffffffffffffffffffffffffffffff0000000000000000ffffffffffffffff909216919091179055565b610a3e8383836118c7565b6000546001600160a01b03163314610b495760405162461bcd60e51b815260206004820181905260248201527f4f776e61626c653a2063616c6c6572206973206e6f7420746865206f776e657260448201526064016107c7565b600260095403610b9b5760405162461bcd60e51b815260206004820152601f60248201527f5265656e7472616e637947756172643a207265656e7472616e742063616c6c0060448201526064016107c7565b6002600955604051600090339047908381818185875af1925050503d8060008114610be2576040519150601f19603f3d011682016040523d82523d6000602084013e610be7565b606091505b5050905080610c385760405162461bcd60e51b815260206004820152601060248201527f5472616e73666572206661696c65642e0000000000000000000000000000000060448201526064016107c7565b506001600955565b610a3e83838360405180602001604052806000815250611622565b6000546001600160a01b03163314610cb55760405162461bcd60e51b815260206004820181905260248201527f4f776e61626c653a2063616c6c6572206973206e6f7420746865206f776e657260448201526064016107c7565b610a3e600c83836126fa565b6000610ccc82611b03565b5192915050565b60008215801590610ce357508115155b8015610cef5750814210155b9392505050565b6000546001600160a01b03163314610d505760405162461bcd60e51b815260206004820181905260248201527f4f776e61626c653a2063616c6c6572206973206e6f7420746865206f776e657260448201526064016107c7565b600a805463ffffffff191663ffffffff9390931692909217909155600b805473ffffffffffffffffffffffffffffffffffffffff19166001600160a01b03909216919091179055565b60006001600160a01b038216610ddb576040517f8f4eb60400000000000000000000000000000000000000000000000000000000815260040160405180910390fd5b506001600160a01b031660009081526006602052604090205467ffffffffffffffff1690565b6000546001600160a01b03163314610e5b5760405162461bcd60e51b815260206004820181905260248201527f4f776e61626c653a2063616c6c6572206973206e6f7420746865206f776e657260448201526064016107c7565b610e656000611c45565b565b6000546001600160a01b03163314610ec15760405162461bcd60e51b815260206004820181905260248201527f4f776e61626c653a2063616c6c6572206973206e6f7420746865206f776e657260448201526064016107c7565b6002546001547f00000000000000000000000000000000000000000000000000000000000000009183910360001901610efa9190612bfc565b1115610f6e5760405162461bcd60e51b815260206004820152602760248201527f746f6f206d616e7920616c7265616479206d696e746564206265666f7265206460448201527f6576206d696e740000000000000000000000000000000000000000000000000060648201526084016107c7565b610f987f000000000000000000000000000000000000000000000000000000000000000082612c2a565b1561100b5760405162461bcd60e51b815260206004820152602c60248201527f63616e206f6e6c79206d696e742061206d756c7469706c65206f66207468652060448201527f6d6178426174636853697a65000000000000000000000000000000000000000060648201526084016107c7565b60006110377f000000000000000000000000000000000000000000000000000000000000000083612c3e565b905060005b81811015610a3e5761106e337f0000000000000000000000000000000000000000000000000000000000000000611ca2565b8061107881612c52565b91505061103c565b604080516060810182526000808252602082018190529181019190915261088f82611b03565b6060600480546108a490612bac565b3233146111045760405162461bcd60e51b815260206004820152601e60248201527f5468652063616c6c657220697320616e6f7468657220636f6e7472616374000060448201526064016107c7565b600a5467ffffffffffffffff680100000000000000008204169063ffffffff1661112e8282610cd3565b61117a5760405162461bcd60e51b815260206004820181905260248201527f77686974656c6973742073616c6520686173206e6f7420626567756e2079657460448201526064016107c7565b6002546001547f000000000000000000000000000000000000000000000000000000000000000091869103600019016111b39190612bfc565b111561124d5760405162461bcd60e51b815260206004820152604560248201527f6e6f7420656e6f7567682072656d61696e696e6720726573657276656420666f60448201527f722073616c6520746f20737570706f72742064657369726564206d696e74206160648201527f6d6f756e74000000000000000000000000000000000000000000000000000000608482015260a4016107c7565b6001846112593361170f565b6112639190612bfc565b11156112b15760405162461bcd60e51b815260206004820152601660248201527f63616e206e6f74206d696e742074686973206d616e790000000000000000000060448201526064016107c7565b60006112bc33611cc0565b6040516020016112cc9190612c6b565b604051602081830303815290604052905060006112e882611e5b565b905060006112f68287611e96565b600b549091506001600160a01b038083169116146113565760405162461bcd60e51b815260206004820152600960248201527f77726f6e6720736967000000000000000000000000000000000000000000000060448201526064016107c7565b60006113628887612cac565b905061136e3389611ca2565b61137781611eba565b5050505050505050565b3233146113d05760405162461bcd60e51b815260206004820152601e60248201527f5468652063616c6c657220697320616e6f7468657220636f6e7472616374000060448201526064016107c7565b600a5468010000000000000000810467ffffffffffffffff1690640100000000900463ffffffff166114028282610cd3565b61144e5760405162461bcd60e51b815260206004820152601660248201527f73616c6520686173206e6f7420626567756e207965740000000000000000000060448201526064016107c7565b6002546001547f000000000000000000000000000000000000000000000000000000000000000091859103600019016114879190612bfc565b11156114d55760405162461bcd60e51b815260206004820152601260248201527f72656163686564206d617820737570706c79000000000000000000000000000060448201526064016107c7565b7f0000000000000000000000000000000000000000000000000000000000000000836115003361170f565b61150a9190612bfc565b11156115585760405162461bcd60e51b815260206004820152601660248201527f63616e206e6f74206d696e742074686973206d616e790000000000000000000060448201526064016107c7565b6115623384611ca2565b610a3e61156f8484612cac565b611eba565b336001600160a01b038316036115b6576040517fb06307db00000000000000000000000000000000000000000000000000000000815260040160405180910390fd5b3360008181526008602090815260408083206001600160a01b03871680855290835292819020805460ff191686151590811790915590519081529192917f17307eab39ab6107e8899845ad3d59bd9653f200f220920489ca2b5937696c31910160405180910390a35050565b61162d8484846118c7565b6001600160a01b0383163b1515801561164f575061164d84848484611f48565b155b1561166d576040516368d2bf6b60e11b815260040160405180910390fd5b50505050565b606061167e82611825565b6116b4576040517fa14c4b5000000000000000000000000000000000000000000000000000000000815260040160405180910390fd5b60006116be612034565b905080516000036116de5760405180602001604052806000815250610cef565b806116e884612043565b6040516020016116f9929190612ccb565b6040516020818303038152906040529392505050565b6001600160a01b03811660009081526006602052604081205468010000000000000000900467ffffffffffffffff1661088f565b6000546001600160a01b0316331461179d5760405162461bcd60e51b815260206004820181905260248201527f4f776e61626c653a2063616c6c6572206973206e6f7420746865206f776e657260448201526064016107c7565b6001600160a01b0381166118195760405162461bcd60e51b815260206004820152602660248201527f4f776e61626c653a206e6577206f776e657220697320746865207a65726f206160448201527f646472657373000000000000000000000000000000000000000000000000000060648201526084016107c7565b61182281611c45565b50565b600081600111158015611839575060015482105b801561088f575050600090815260056020526040902054600160e01b900460ff161590565b600082815260076020526040808220805473ffffffffffffffffffffffffffffffffffffffff19166001600160a01b0387811691821790925591518593918516917f8c5be1e5ebec7d5bd14f71427d1e84f3dd0314c0f7b2291e5b200ac8c7c3b92591a4505050565b60006118d282611b03565b9050836001600160a01b031681600001516001600160a01b031614611923576040517fa114810000000000000000000000000000000000000000000000000000000000815260040160405180910390fd5b6000336001600160a01b0386161480611941575061194185336106ef565b8061195c57503361195184610927565b6001600160a01b0316145b905080611995576040517f59c896be00000000000000000000000000000000000000000000000000000000815260040160405180910390fd5b6001600160a01b0384166119d5576040517fea553b3400000000000000000000000000000000000000000000000000000000815260040160405180910390fd5b6119e16000848761185e565b6001600160a01b038581166000908152600660209081526040808320805467ffffffffffffffff1980821667ffffffffffffffff92831660001901831617909255898616808652838620805493841693831660019081018416949094179055898652600590945282852080546001600160e01b031916909417600160a01b42909216919091021783558701808452922080549193909116611ab7576001548214611ab7578054602086015167ffffffffffffffff16600160a01b026001600160e01b03199091166001600160a01b038a16171781555b50505082846001600160a01b0316866001600160a01b03167fddf252ad1be2c89b69c2b068fc378daa952ba7f163c4a11628f55a4df523b3ef60405160405180910390a45b5050505050565b60408051606081018252600080825260208201819052918101919091528180600111158015611b33575060015481105b15611c1357600081815260056020908152604091829020825160608101845290546001600160a01b0381168252600160a01b810467ffffffffffffffff1692820192909252600160e01b90910460ff16151591810182905290611c115780516001600160a01b031615611ba7579392505050565b5060001901600081815260056020908152604091829020825160608101845290546001600160a01b038116808352600160a01b820467ffffffffffffffff1693830193909352600160e01b900460ff1615159281019290925215611c0c579392505050565b611ba7565b505b6040517fdf2d9b4200000000000000000000000000000000000000000000000000000000815260040160405180910390fd5b600080546001600160a01b0383811673ffffffffffffffffffffffffffffffffffffffff19831681178455604051919092169283917f8be0079c531659141344cd1fd0a4f28419497f9722a3daafe3b4186f6b6457e09190a35050565b611cbc828260405180602001604052806000815250612144565b5050565b60408051602a8082526060828101909352600091906020820181803683370190505090506000839050600360fc1b82600081518110611d0157611d01612cfa565b60200101906001600160f81b031916908160001a9053507f580000000000000000000000000000000000000000000000000000000000000082600181518110611d4c57611d4c612cfa565b60200101906001600160f81b031916908160001a90535060005b6014811015611e52576000611d7c826013612d10565b611d87906008612cac565b6001600160a01b038416901c9050600f600482901c166000611dac60f0841684612d27565b9050611db782612151565b86611dc3866002612cac565b611dce906002612bfc565b81518110611dde57611dde612cfa565b60200101906001600160f81b031916908160001a905350611dfe81612151565b86611e0a866002612cac565b611e15906003612bfc565b81518110611e2557611e25612cfa565b60200101906001600160f81b031916908160001a9053505050508080611e4a90612c52565b915050611d66565b50909392505050565b6000611e678251612043565b82604051602001611e79929190612d4a565b604051602081830303815290604052805190602001209050919050565b6000806000611ea58585612183565b91509150611eb2816121f1565b509392505050565b80341015611f0a5760405162461bcd60e51b815260206004820152601660248201527f4e65656420746f2073656e64206d6f7265204554482e0000000000000000000060448201526064016107c7565b8034111561182257336108fc611f208334612d10565b6040518115909202916000818181858888f19350505050158015611cbc573d6000803e3d6000fd5b604051630a85bd0160e11b81526000906001600160a01b0385169063150b7a0290611f7d903390899088908890600401612da5565b6020604051808303816000875af1925050508015611fb8575060408051601f3d908101601f19168201909252611fb591810190612de1565b60015b612016573d808015611fe6576040519150601f19603f3d011682016040523d82523d6000602084013e611feb565b606091505b50805160000361200e576040516368d2bf6b60e11b815260040160405180910390fd5b805181602001fd5b6001600160e01b031916630a85bd0160e11b1490505b949350505050565b6060600c80546108a490612bac565b60608160000361206a5750506040805180820190915260018152600360fc1b602082015290565b8160005b8115612094578061207e81612c52565b915061208d9050600a83612c3e565b915061206e565b60008167ffffffffffffffff8111156120af576120af612a02565b6040519080825280601f01601f1916602001820160405280156120d9576020820181803683370190505b5090505b841561202c576120ee600183612d10565b91506120fb600a86612c2a565b612106906030612bfc565b60f81b81838151811061211b5761211b612cfa565b60200101906001600160f81b031916908160001a90535061213d600a86612c3e565b94506120dd565b610a3e83838360016123a7565b6000600a8260ff1610156121735761216a826030612dfe565b60f81b92915050565b61216a826037612dfe565b919050565b60008082516041036121b95760208301516040840151606085015160001a6121ad878285856125bb565b945094505050506121ea565b82516040036121e257602083015160408401516121d78683836126a8565b9350935050506121ea565b506000905060025b9250929050565b600081600481111561220557612205612e23565b0361220d5750565b600181600481111561222157612221612e23565b0361226e5760405162461bcd60e51b815260206004820152601860248201527f45434453413a20696e76616c6964207369676e6174757265000000000000000060448201526064016107c7565b600281600481111561228257612282612e23565b036122cf5760405162461bcd60e51b815260206004820152601f60248201527f45434453413a20696e76616c6964207369676e6174757265206c656e6774680060448201526064016107c7565b60038160048111156122e3576122e3612e23565b0361233b5760405162461bcd60e51b815260206004820152602260248201527f45434453413a20696e76616c6964207369676e6174757265202773272076616c604482015261756560f01b60648201526084016107c7565b600481600481111561234f5761234f612e23565b036118225760405162461bcd60e51b815260206004820152602260248201527f45434453413a20696e76616c6964207369676e6174757265202776272076616c604482015261756560f01b60648201526084016107c7565b6001546001600160a01b0385166123ea576040517f2e07630000000000000000000000000000000000000000000000000000000000815260040160405180910390fd5b83600003612424576040517fb562e8dd00000000000000000000000000000000000000000000000000000000815260040160405180910390fd5b6001600160a01b038516600081815260066020908152604080832080547fffffffffffffffffffffffffffffffff00000000000000000000000000000000811667ffffffffffffffff8083168c0181169182176801000000000000000067ffffffffffffffff1990941690921783900481168c01811690920217909155858452600590925290912080546001600160e01b031916909217600160a01b4290921691909102179055808085018380156124e557506001600160a01b0387163b15155b1561256d575b60405182906001600160a01b038916906000907fddf252ad1be2c89b69c2b068fc378daa952ba7f163c4a11628f55a4df523b3ef908290a46125366000888480600101955088611f48565b612553576040516368d2bf6b60e11b815260040160405180910390fd5b8082036124eb57826001541461256857600080fd5b6125b2565b5b6040516001830192906001600160a01b038916906000907fddf252ad1be2c89b69c2b068fc378daa952ba7f163c4a11628f55a4df523b3ef908290a480820361256e575b50600155611afc565b6000807f7fffffffffffffffffffffffffffffff5d576e7357a4501ddfe92f46681b20a08311156125f2575060009050600361269f565b8460ff16601b1415801561260a57508460ff16601c14155b1561261b575060009050600461269f565b6040805160008082526020820180845289905260ff881692820192909252606081018690526080810185905260019060a0016020604051602081039080840390855afa15801561266f573d6000803e3d6000fd5b5050604051601f1901519150506001600160a01b0381166126985760006001925092505061269f565b9150600090505b94509492505050565b6000807f7fffffffffffffffffffffffffffffffffffffffffffffffffffffffffffffff8316816126de60ff86901c601b612bfc565b90506126ec878288856125bb565b935093505050935093915050565b82805461270690612bac565b90600052602060002090601f016020900481019282612728576000855561276e565b82601f106127415782800160ff1982351617855561276e565b8280016001018555821561276e579182015b8281111561276e578235825591602001919060010190612753565b5061277a92915061277e565b5090565b5b8082111561277a576000815560010161277f565b803563ffffffff8116811461217e57600080fd5b6000602082840312156127b957600080fd5b610cef82612793565b6001600160e01b03198116811461182257600080fd5b6000602082840312156127ea57600080fd5b8135610cef816127c2565b60005b838110156128105781810151838201526020016127f8565b8381111561166d5750506000910152565b600081518084526128398160208601602086016127f5565b601f01601f19169290920160200192915050565b602081526000610cef6020830184612821565b60006020828403121561287257600080fd5b5035919050565b80356001600160a01b038116811461217e57600080fd5b600080604083850312156128a357600080fd5b6128ac83612879565b946020939093013593505050565b6000602082840312156128cc57600080fd5b813567ffffffffffffffff81168114610cef57600080fd5b6000806000606084860312156128f957600080fd5b61290284612879565b925061291060208501612879565b9150604084013590509250925092565b6000806020838503121561293357600080fd5b823567ffffffffffffffff8082111561294b57600080fd5b818501915085601f83011261295f57600080fd5b81358181111561296e57600080fd5b86602082850101111561298057600080fd5b60209290920196919550909350505050565b600080604083850312156129a557600080fd5b50508035926020909101359150565b600080604083850312156129c757600080fd5b6129d083612793565b91506129de60208401612879565b90509250929050565b6000602082840312156129f957600080fd5b610cef82612879565b634e487b7160e01b600052604160045260246000fd5b600082601f830112612a2957600080fd5b813567ffffffffffffffff80821115612a4457612a44612a02565b604051601f8301601f19908116603f01168101908282118183101715612a6c57612a6c612a02565b81604052838152866020858801011115612a8557600080fd5b836020870160208301376000602085830101528094505050505092915050565b60008060408385031215612ab857600080fd5b82359150602083013567ffffffffffffffff811115612ad657600080fd5b612ae285828601612a18565b9150509250929050565b60008060408385031215612aff57600080fd5b612b0883612879565b915060208301358015158114612b1d57600080fd5b809150509250929050565b60008060008060808587031215612b3e57600080fd5b612b4785612879565b9350612b5560208601612879565b925060408501359150606085013567ffffffffffffffff811115612b7857600080fd5b612b8487828801612a18565b91505092959194509250565b60008060408385031215612ba357600080fd5b6129d083612879565b600181811c90821680612bc057607f821691505b602082108103612be057634e487b7160e01b600052602260045260246000fd5b50919050565b634e487b7160e01b600052601160045260246000fd5b60008219821115612c0f57612c0f612be6565b500190565b634e487b7160e01b600052601260045260246000fd5b600082612c3957612c39612c14565b500690565b600082612c4d57612c4d612c14565b500490565b600060018201612c6457612c64612be6565b5060010190565b60008251612c7d8184602087016127f5565b7f3a31000000000000000000000000000000000000000000000000000000000000920191825250600201919050565b6000816000190483118215151615612cc657612cc6612be6565b500290565b60008351612cdd8184602088016127f5565b835190830190612cf18183602088016127f5565b01949350505050565b634e487b7160e01b600052603260045260246000fd5b600082821015612d2257612d22612be6565b500390565b600060ff821660ff841680821015612d4157612d41612be6565b90039392505050565b7f19457468657265756d205369676e6564204d6573736167653a0a000000000000815260008351612d8281601a8501602088016127f5565b835190830190612d9981601a8401602088016127f5565b01601a01949350505050565b60006001600160a01b03808716835280861660208401525083604083015260806060830152612dd76080830184612821565b9695505050505050565b600060208284031215612df357600080fd5b8151610cef816127c2565b600060ff821660ff84168060ff03821115612e1b57612e1b612be6565b019392505050565b634e487b7160e01b600052602160045260246000fdfea2646970667358221220b968258fb505d038d4dfc7b6ebdfc9910e4c40973c75e0aec5d1837f67e9024964736f6c634300080d0033",
  "linkReferences": {},
  "deployedLinkReferences": {}
}